:020000040000FA
:08000000803102288731F72F3F
:100F0A0008342F0096019701980199019A019B01D3
:100F1A000800623031008D008F0191010230930088
:100F2A00920108008731862787318731D127873197
:100F3A0087318E27873108000830230090009101FD
:100F4A008F0103308D002000931513160800873196
:100F5A0097278731200091108731A12787312000F8
:100F6A008C140730F3005830F2005A30890BBB2F2B
:100F7A00F20BBB2FF30BBB2F20008C100230F300B7
:100F8A004530F200AA30890BC82FF20BC82FF30B99
:100F9A00C82FB42F803102282000960197019801AA
:100FAA009101FF309200FF309300FF303E00CE00E7
:100FBA00FF30C300FF30B800E501C401B901CF0119
:100FCA00BA01C501D001FF30BB00FF30C600FF30B7
:100FDA00D100FF30BC00FF30C700FF30D20008301C
:100FEA00E8000800873185278731F400F001F10114
:100FFA0020008731AC2F203469346934693469346C
:10100A0069346934693469346934693469346934EE
:10101A0069346934693469346934003420343A34BF
:10102A0029342934293429342934293429342934CE
:10103A0029342934293429342934293429340034E7
:10104A002034323432343234323432343234323478
:10105A003234323432343234323400342034633469
:10106A0063346334633463346334633463346334BE
:04107A0063340034A7
:020000040001F9
:0A000E00EC3FFF3F9F3FFF3FFF3F25
:00000001FF
